{
  "contractName": "Sale",
  "abi": [
    {
      "constant": false,
      "inputs": [],
      "name": "emergencyToggle",
      "outputs": [],
      "payable": false,
      "stateMutability": "nonpayable",
      "type": "function"
    },
    {
      "constant": true,
      "inputs": [],
      "name": "preBuyersDispensedTo",
      "outputs": [
        {
          "name": "",
          "type": "uint256"
        }
      ],
      "payable": false,
      "stateMutability": "view",
      "type": "function"
    },
    {
      "constant": false,
      "inputs": [],
      "name": "purchaseTokens",
      "outputs": [],
      "payable": true,
      "stateMutability": "payable",
      "type": "function"
    },
    {
      "constant": true,
      "inputs": [],
      "name": "totalTimelockedBeneficiaries",
      "outputs": [
        {
          "name": "",
          "type": "uint256"
        }
      ],
      "payable": false,
      "stateMutability": "view",
      "type": "function"
    },
    {
      "constant": true,
      "inputs": [],
      "name": "freezeBlock",
      "outputs": [
        {
          "name": "",
          "type": "uint256"
        }
      ],
      "payable": false,
      "stateMutability": "view",
      "type": "function"
    },
    {
      "constant": true,
      "inputs": [],
      "name": "startBlock",
      "outputs": [
        {
          "name": "",
          "type": "uint256"
        }
      ],
      "payable": false,
      "stateMutability": "view",
      "type": "function"
    },
    {
      "constant": true,
      "inputs": [],
      "name": "wallet",
      "outputs": [
        {
          "name": "",
          "type": "address"
        }
      ],
      "payable": false,
      "stateMutability": "view",
      "type": "function"
    },
    {
      "constant": false,
      "inputs": [
        {
          "name": "_newBlock",
          "type": "uint256"
        }
      ],
      "name": "changeStartBlock",
      "outputs": [],
      "payable": false,
      "stateMutability": "nonpayable",
      "type": "function"
    },
    {
      "constant": false,
      "inputs": [
        {
          "name": "_beneficiaries",
          "type": "address[]"
        },
        {
          "name": "_beneficiariesTokens",
          "type": "uint256[]"
        },
        {
          "name": "_timelocks",
          "type": "uint256[]"
        },
        {
          "name": "_periods",
          "type": "uint256[]"
        }
      ],
      "name": "distributeTimelockedTokens",
      "outputs": [],
      "payable": false,
      "stateMutability": "nonpayable",
      "type": "function"
    },
    {
      "constant": true,
      "inputs": [],
      "name": "timeLockedBeneficiariesDisbursedTo",
      "outputs": [
        {
          "name": "",
          "type": "uint256"
        }
      ],
      "payable": false,
      "stateMutability": "view",
      "type": "function"
    },
    {
      "constant": true,
      "inputs": [],
      "name": "totalPreBuyers",
      "outputs": [
        {
          "name": "",
          "type": "uint256"
        }
      ],
      "payable": false,
      "stateMutability": "view",
      "type": "function"
    },
    {
      "constant": true,
      "inputs": [],
      "name": "timelockedTokensDisbursed",
      "outputs": [
        {
          "name": "",
          "type": "bool"
        }
      ],
      "payable": false,
      "stateMutability": "view",
      "type": "function"
    },
    {
      "constant": true,
      "inputs": [],
      "name": "owner",
      "outputs": [
        {
          "name": "",
          "type": "address"
        }
      ],
      "payable": false,
      "stateMutability": "view",
      "type": "function"
    },
    {
      "constant": false,
      "inputs": [
        {
          "name": "_preBuyers",
          "type": "address[]"
        },
        {
          "name": "_preBuyersTokens",
          "type": "uint256[]"
        }
      ],
      "name": "distributePreBuyersRewards",
      "outputs": [],
      "payable": false,
      "stateMutability": "nonpayable",
      "type": "function"
    },
    {
      "constant": false,
      "inputs": [
        {
          "name": "_wallet",
          "type": "address"
        }
      ],
      "name": "changeWallet",
      "outputs": [],
      "payable": false,
      "stateMutability": "nonpayable",
      "type": "function"
    },
    {
      "constant": true,
      "inputs": [],
      "name": "price",
      "outputs": [
        {
          "name": "",
          "type": "uint256"
        }
      ],
      "payable": false,
      "stateMutability": "view",
      "type": "function"
    },
    {
      "constant": false,
      "inputs": [
        {
          "name": "_newPrice",
          "type": "uint256"
        }
      ],
      "name": "changePrice",
      "outputs": [],
      "payable": false,
      "stateMutability": "nonpayable",
      "type": "function"
    },
    {
      "constant": false,
      "inputs": [
        {
          "name": "_newOwner",
          "type": "address"
        }
      ],
      "name": "changeOwner",
      "outputs": [],
      "payable": false,
      "stateMutability": "nonpayable",
      "type": "function"
    },
    {
      "constant": true,
      "inputs": [],
      "name": "emergencyFlag",
      "outputs": [
        {
          "name": "",
          "type": "bool"
        }
      ],
      "payable": false,
      "stateMutability": "view",
      "type": "function"
    },
    {
      "constant": true,
      "inputs": [],
      "name": "preSaleTokensDisbursed",
      "outputs": [
        {
          "name": "",
          "type": "bool"
        }
      ],
      "payable": false,
      "stateMutability": "view",
      "type": "function"
    },
    {
      "constant": true,
      "inputs": [],
      "name": "token",
      "outputs": [
        {
          "name": "",
          "type": "address"
        }
      ],
      "payable": false,
      "stateMutability": "view",
      "type": "function"
    },
    {
      "inputs": [
        {
          "name": "_owner",
          "type": "address"
        },
        {
          "name": "_wallet",
          "type": "address"
        },
        {
          "name": "_tokenSupply",
          "type": "uint256"
        },
        {
          "name": "_tokenName",
          "type": "string"
        },
        {
          "name": "_tokenDecimals",
          "type": "uint8"
        },
        {
          "name": "_tokenSymbol",
          "type": "string"
        },
        {
          "name": "_price",
          "type": "uint256"
        },
        {
          "name": "_startBlock",
          "type": "uint256"
        },
        {
          "name": "_freezeBlock",
          "type": "uint256"
        },
        {
          "name": "_totalPreBuyers",
          "type": "uint256"
        },
        {
          "name": "_totalTimelockedBeneficiaries",
          "type": "uint256"
        }
      ],
      "payable": false,
      "stateMutability": "nonpayable",
      "type": "constructor"
    },
    {
      "anonymous": false,
      "inputs": [
        {
          "indexed": true,
          "name": "purchaser",
          "type": "address"
        },
        {
          "indexed": false,
          "name": "amount",
          "type": "uint256"
        }
      ],
      "name": "PurchasedTokens",
      "type": "event"
    },
    {
      "anonymous": false,
      "inputs": [
        {
          "indexed": true,
          "name": "preBuyer",
          "type": "address"
        },
        {
          "indexed": false,
          "name": "amount",
          "type": "uint256"
        }
      ],
      "name": "TransferredPreBuyersReward",
      "type": "event"
    },
    {
      "anonymous": false,
      "inputs": [
        {
          "indexed": false,
          "name": "beneficiary",
          "type": "address"
        },
        {
          "indexed": false,
          "name": "disburser",
          "type": "address"
        },
        {
          "indexed": false,
          "name": "amount",
          "type": "uint256"
        }
      ],
      "name": "TransferredTimelockedTokens",
      "type": "event"
    }
  ],
  "bytecode": "0x6060604052600060075560006009556000600a60006101000a81548160ff0219169083151502179055506000600a60016101000a81548160ff0219169083151502179055506000600a60026101000a81548160ff02191690831515021790555034156200006b57600080fd5b6040516200359638038062003596833981016040528080519060200190919080519060200190919080519060200190919080518201919060200180519060200190919080518201919060200180519060200190919080519060200190919080519060200190919080519060200190919080519060200190919050508a6000806101000a81548173ffffffffffffffffffffffffffffffffffffffff021916908373ffffffffffffffffffffffffffffffffffffffff16021790555089600160006101000a81548173ffffffffffffffffffffffffffffffffffffffff021916908373ffffffffffffffffffffffffffffffffffffffff16021790555088888888620001756200070e565b80858152602001806020018460ff1660ff16815260200180602001838103835286818151815260200191508051906020019080838360005b83811015620001ca578082015181840152602081019050620001ad565b50505050905090810190601f168015620001f85780820380516001836020036101000a031916815260200191505b50838103825284818151815260200191508051906020019080838360005b838110156200023357808201518184015260208101905062000216565b50505050905090810190601f168015620002615780820380516001836020036101000a031916815260200191505b509650505050505050604051809103906000f08015156200028157600080fd5b600260006101000a81548173ffffffffffffffffffffffffffffffffffffffff021916908373ffffffffffffffffffffffffffffffffffffffff1602179055508460038190555083600481905550826005819055508160068190555080600881905550600260009054906101000a900473ffffffffffffffffffffffffffffffffffffffff1673ffffffffffffffffffffffffffffffffffffffff1663a9059cbb30600260009054906101000a900473ffffffffffffffffffffffffffffffffffffffff1673ffffffffffffffffffffffffffffffffffffffff166318160ddd6000604051602001526040518163ffffffff167c0100000000000000000000000000000000000000000000000000000000028152600401602060405180830381600087803b1515620003b257600080fd5b6102c65a03f11515620003c457600080fd5b505050604051805190506000604051602001526040518363ffffffff167c0100000000000000000000000000000000000000000000000000000000028152600401808373ffffffffffffffffffffffffffffffffffffffff1673ffffffffffffffffffffffffffffffffffffffff16815260200182815260200192505050602060405180830381600087803b15156200045c57600080fd5b6102c65a03f115156200046e57600080fd5b5050506040518051905050600260009054906101000a900473ffffffffffffffffffffffffffffffffffffffff1673ffffffffffffffffffffffffffffffffffffffff166318160ddd6000604051602001526040518163ffffffff167c0100000000000000000000000000000000000000000000000000000000028152600401602060405180830381600087803b15156200050857600080fd5b6102c65a03f115156200051a57600080fd5b50505060405180519050600260009054906101000a900473ffffffffffffffffffffffffffffffffffffffff1673ffffffffffffffffffffffffffffffffffffffff166370a08231306000604051602001526040518263ffffffff167c0100000000000000000000000000000000000000000000000000000000028152600401808273ffffffffffffffffffffffffffffffffffffffff1673ffffffffffffffffffffffffffffffffffffffff168152602001915050602060405180830381600087803b1515620005ea57600080fd5b6102c65a03f11515620005fc57600080fd5b505050604051805190501415156200061057fe5b88600260009054906101000a900473ffffffffffffffffffffffffffffffffffffffff1673ffffffffffffffffffffffffffffffffffffffff166370a08231306000604051602001526040518263ffffffff167c0100000000000000000000000000000000000000000000000000000000028152600401808273ffffffffffffffffffffffffffffffffffffffff1673ffffffffffffffffffffffffffffffffffffffff168152602001915050602060405180830381600087803b1515620006d757600080fd5b6102c65a03f11515620006e957600080fd5b50505060405180519050141515620006fd57fe5b50505050505050505050506200071f565b604051611178806200241e83390190565b611cef806200072f6000396000f30060606040526004361061011c576000357c0100000000000000000000000000000000000000000000000000000000900463ffffffff168062a535981461012157806328c6d8e3146101365780633290ce291461015f578063332b3177146101695780633a1578601461019257806348cd4cb1146101bb578063521eb273146101e45780635437f09814610239578063555c47581461025c5780635a4877c01461037657806366f3a2b81461039f5780636d50ef2a146103c85780638da5cb5b146103f557806394b5255b1461044a57806398b9a2dc146104e4578063a035b1fe1461051d578063a2b40d1914610546578063a6f9dae114610569578063b4007cda146105a2578063d26dbd2a146105cf578063fc0c546a146105fc575b600080fd5b341561012c57600080fd5b610134610651565b005b341561014157600080fd5b6101496106d8565b6040518082815260200191505060405180910390f35b6101676106de565b005b341561017457600080fd5b61017c610a4d565b6040518082815260200191505060405180910390f35b341561019d57600080fd5b6101a5610a53565b6040518082815260200191505060405180910390f35b34156101c657600080fd5b6101ce610a59565b6040518082815260200191505060405180910390f35b34156101ef57600080fd5b6101f7610a5f565b604051808273ffffffffffffffffffffffffffffffffffffffff1673ffffffffffffffffffffffffffffffffffffffff16815260200191505060405180910390f35b341561024457600080fd5b61025a6004808035906020019091905050610a85565b005b341561026757600080fd5b610374600480803590602001908201803590602001908080602002602001604051908101604052809392919081815260200183836020028082843782019150505050505091908035906020019082018035906020019080806020026020016040519081016040528093929190818152602001838360200280828437820191505050505050919080359060200190820180359060200190808060200260200160405190810160405280939291908181526020018383602002808284378201915050505050509190803590602001908201803590602001908080602002602001604051908101604052809392919081815260200183836020028082843782019150505050505091905050610b19565b005b341561038157600080fd5b610389610f2a565b6040518082815260200191505060405180910390f35b34156103aa57600080fd5b6103b2610f30565b6040518082815260200191505060405180910390f35b34156103d357600080fd5b6103db610f36565b604051808215151515815260200191505060405180910390f35b341561040057600080fd5b610408610f49565b604051808273ffffffffffffffffffffffffffffffffffffffff1673ffffffffffffffffffffffffffffffffffffffff16815260200191505060405180910390f35b341561045557600080fd5b6104e260048080359060200190820180359060200190808060200260200160405190810160405280939291908181526020018383602002808284378201915050505050509190803590602001908201803590602001908080602002602001604051908101604052809392919081815260200183836020028082843782019150505050505091905050610f6e565b005b34156104ef57600080fd5b61051b600480803573ffffffffffffffffffffffffffffffffffffffff169060200190919050506111d0565b005b341561052857600080fd5b6105306112a5565b6040518082815260200191505060405180910390f35b341561055157600080fd5b61056760048080359060200190919050506112ab565b005b341561057457600080fd5b6105a0600480803573ffffffffffffffffffffffffffffffffffffffff16906020019091905050611330565b005b34156105ad57600080fd5b6105b56113f4565b604051808215151515815260200191505060405180910390f35b34156105da57600080fd5b6105e2611407565b604051808215151515815260200191505060405180910390f35b341561060757600080fd5b61060f61141a565b604051808273ffffffffffffffffffffffffffffffffffffffff1673ffffffffffffffffffffffffffffffffffffffff16815260200191505060405180910390f35b6000809054906101000a900473ffffffffffffffffffffffffffffffffffffffff1673ffffffffffffffffffffffffffffffffffffffff163373ffffffffffffffffffffffffffffffffffffffff161415156106ac57600080fd5b600a60009054906101000a900460ff1615600a60006101000a81548160ff021916908315150217905550565b60075481565b60008060045443101515156106f257600080fd5b600a60019054906101000a900460ff16801561071a5750600a60029054906101000a900460ff165b151561072257fe5b60001515600a60009054906101000a900460ff16151514151561074157fe5b6003543481151561074e57fe5b0491506003543481151561075e57fe5b069050600260009054906101000a900473ffffffffffffffffffffffffffffffffffffffff1673ffffffffffffffffffffffffffffffffffffffff166370a08231306000604051602001526040518263ffffffff167c0100000000000000000000000000000000000000000000000000000000028152600401808273ffffffffffffffffffffffffffffffffffffffff1673ffffffffffffffffffffffffffffffffffffffff168152602001915050602060405180830381600087803b151561082657600080fd5b6102c65a03f1151561083757600080fd5b50505060405180519050821115151561084f57600080fd5b6000811115610899573373ffffffffffffffffffffffffffffffffffffffff166108fc829081150290604051600060405180830381858888f19350505050151561089857600080fd5b5b600160009054906101000a900473ffffffffffffffffffffffffffffffffffffffff1673ffffffffffffffffffffffffffffffffffffffff166108fc3073ffffffffffffffffffffffffffffffffffffffff16319081150290604051600060405180830381858888f19350505050151561091257600080fd5b600260009054906101000a900473ffffffffffffffffffffffffffffffffffffffff1673ffffffffffffffffffffffffffffffffffffffff1663a9059cbb33846000604051602001526040518363ffffffff167c0100000000000000000000000000000000000000000000000000000000028152600401808373ffffffffffffffffffffffffffffffffffffffff1673ffffffffffffffffffffffffffffffffffffffff16815260200182815260200192505050602060405180830381600087803b15156109df57600080fd5b6102c65a03f115156109f057600080fd5b50505060405180519050503373ffffffffffffffffffffffffffffffffffffffff167ff9c447a9cff6748e98623cddf46579164dc4c2af6253de5278893e8659277364836040518082815260200191505060405180910390a25050565b60085481565b60055481565b60045481565b600160009054906101000a900473ffffffffffffffffffffffffffffffffffffffff1681565b6000809054906101000a900473ffffffffffffffffffffffffffffffffffffffff1673ffffffffffffffffffffffffffffffffffffffff163373ffffffffffffffffffffffffffffffffffffffff16141515610ae057600080fd5b60055443101515610af057600080fd5b60008114151515610b0057600080fd5b6005546004540381036005819055508060048190555050565b6000806000806000809054906101000a900473ffffffffffffffffffffffffffffffffffffffff1673ffffffffffffffffffffffffffffffffffffffff163373ffffffffffffffffffffffffffffffffffffffff16141515610b7a57600080fd5b600a60019054906101000a900460ff161515610b9257fe5b600a60029054906101000a900460ff16151515610bab57fe5b600093505b8751841015610ef8578784815181101515610bc757fe5b9060200190602002015192508684815181101515610be157fe5b906020019060200201519150828585815181101515610bfc57fe5b906020019060200201518786815181101515610c1457fe5b90602001906020020151610c26611440565b808473ffffffffffffffffffffffffffffffffffffffff1673ffffffffffffffffffffffffffffffffffffffff1681526020018381526020018281526020019350505050604051809103906000f0801515610c8057600080fd5b90508073ffffffffffffffffffffffffffffffffffffffff166366d38203600260009054906101000a900473ffffffffffffffffffffffffffffffffffffffff166040518263ffffffff167c0100000000000000000000000000000000000000000000000000000000028152600401808273ffffffffffffffffffffffffffffffffffffffff1673ffffffffffffffffffffffffffffffffffffffff168152602001915050600060405180830381600087803b1515610d3e57600080fd5b6102c65a03f11515610d4f57600080fd5b505050600260009054906101000a900473ffffffffffffffffffffffffffffffffffffffff1673ffffffffffffffffffffffffffffffffffffffff1663a9059cbb82846000604051602001526040518363ffffffff167c0100000000000000000000000000000000000000000000000000000000028152600401808373ffffffffffffffffffffffffffffffffffffffff1673ffffffffffffffffffffffffffffffffffffffff16815260200182815260200192505050602060405180830381600087803b1515610e1f57600080fd5b6102c65a03f11515610e3057600080fd5b505050604051805190505060016009600082825401925050819055507f659bd17426525d271e76e8b662badf9e68de74efbdb62927843499ecec17c924838284604051808473ffffffffffffffffffffffffffffffffffffffff1673ffffffffffffffffffffffffffffffffffffffff1681526020018373ffffffffffffffffffffffffffffffffffffffff1673ffffffffffffffffffffffffffffffffffffffff168152602001828152602001935050505060405180910390a18380600101945050610bb0565b6008546009541415610f20576001600a60026101000a81548160ff0219169083151502179055505b5050505050505050565b60095481565b60065481565b600a60029054906101000a900460ff1681565b6000809054906101000a900473ffffffffffffffffffffffffffffffffffffffff1681565b60008060009054906101000a900473ffffffffffffffffffffffffffffffffffffffff1673ffffffffffffffffffffffffffffffffffffffff163373ffffffffffffffffffffffffffffffffffffffff16141515610fcb57600080fd5b600a60019054906101000a900460ff16151515610fe457fe5b600090505b82518110156111a357600260009054906101000a900473ffffffffffffffffffffffffffffffffffffffff1673ffffffffffffffffffffffffffffffffffffffff1663a9059cbb848381518110151561103e57fe5b90602001906020020151848481518110151561105657fe5b906020019060200201516000604051602001526040518363ffffffff167c0100000000000000000000000000000000000000000000000000000000028152600401808373ffffffffffffffffffffffffffffffffffffffff1673ffffffffffffffffffffffffffffffffffffffff16815260200182815260200192505050602060405180830381600087803b15156110ed57600080fd5b6102c65a03f115156110fe57600080fd5b50505060405180519050506001600760008282540192505081905550828181518110151561112857fe5b9060200190602002015173ffffffffffffffffffffffffffffffffffffffff167fc8cd09ae0c3d03fa0d2a7fac69f32a4f2957ef01cf0c00cc96a7cb7b2d662205838381518110151561117757fe5b906020019060200201516040518082815260200191505060405180910390a28080600101915050610fe9565b60065460075414156111cb576001600a60016101000a81548160ff0219169083151502179055505b505050565b6000809054906101000a900473ffffffffffffffffffffffffffffffffffffffff1673ffffffffffffffffffffffffffffffffffffffff163373ffffffffffffffffffffffffffffffffffffffff1614151561122b57600080fd5b6005544310151561123b57600080fd5b60008173ffffffffffffffffffffffffffffffffffffffff161415151561126157600080fd5b80600160006101000a81548173ffffffffffffffffffffffffffffffffffffffff021916908373ffffffffffffffffffffffffffffffffffffffff16021790555050565b60035481565b6000809054906101000a900473ffffffffffffffffffffffffffffffffffffffff1673ffffffffffffffffffffffffffffffffffffffff163373ffffffffffffffffffffffffffffffffffffffff1614151561130657600080fd5b6005544310151561131657600080fd5b6000811415151561132657600080fd5b8060038190555050565b6000809054906101000a900473ffffffffffffffffffffffffffffffffffffffff1673ffffffffffffffffffffffffffffffffffffffff163373ffffffffffffffffffffffffffffffffffffffff1614151561138b57600080fd5b60008173ffffffffffffffffffffffffffffffffffffffff16141515156113b157600080fd5b806000806101000a81548173ffffffffffffffffffffffffffffffffffffffff021916908373ffffffffffffffffffffffffffffffffffffffff16021790555050565b600a60009054906101000a900460ff1681565b600a60019054906101000a900460ff1681565b600260009054906101000a900473ffffffffffffffffffffffffffffffffffffffff1681565b604051610873806114518339019056006060604052341561000f57600080fd5b6040516060806108738339810160405280805190602001909190805190602001909190805190602001909190505060008373ffffffffffffffffffffffffffffffffffffffff1614806100625750600082145b1561006c57600080fd5b336000806101000a81548173ffffffffffffffffffffffffffffffffffffffff021916908373ffffffffffffffffffffffffffffffffffffffff16021790555082600160006101000a81548173ffffffffffffffffffffffffffffffffffffffff021916908373ffffffffffffffffffffffffffffffffffffffff16021790555081600281905550806003819055506000600354141561010e57426003819055505b505050610753806101206000396000f300606060405260043610610099576000357c0100000000000000000000000000000000000000000000000000000000900463ffffffff1680630905aa5c1461009e5780630b97bc86146100c75780634bc9fdc2146100f057806366d38203146101195780638da5cb5b14610152578063e47a6a9f146101a7578063f3fef3a3146101d0578063f7260d3e14610212578063fc0c546a14610267575b600080fd5b34156100a957600080fd5b6100b16102bc565b6040518082815260200191505060405180910390f35b34156100d257600080fd5b6100da6102c2565b6040518082815260200191505060405180910390f35b34156100fb57600080fd5b6101036102c8565b6040518082815260200191505060405180910390f35b341561012457600080fd5b610150600480803573ffffffffffffffffffffffffffffffffffffffff169060200190919050506103f0565b005b341561015d57600080fd5b6101656104f7565b604051808273ffffffffffffffffffffffffffffffffffffffff1673ffffffffffffffffffffffffffffffffffffffff16815260200191505060405180910390f35b34156101b257600080fd5b6101ba61051c565b6040518082815260200191505060405180910390f35b34156101db57600080fd5b610210600480803573ffffffffffffffffffffffffffffffffffffffff16906020019091908035906020019091905050610522565b005b341561021d57600080fd5b6102256106db565b604051808273ffffffffffffffffffffffffffffffffffffffff1673ffffffffffffffffffffffffffffffffffffffff16815260200191505060405180910390f35b341561027257600080fd5b61027a610701565b604051808273ffffffffffffffffffffffffffffffffffffffff1673ffffffffffffffffffffffffffffffffffffffff16815260200191505060405180910390f35b60045481565b60035481565b6000806002546003544203600454600560009054906101000a900473ffffffffffffffffffffffffffffffffffffffff1673ffffffffffffffffffffffffffffffffffffffff166370a08231306000604051602001526040518263ffffffff167c0100000000000000000000000000000000000000000000000000000000028152600401808273ffffffffffffffffffffffffffffffffffffffff1673ffffffffffffffffffffffffffffffffffffffff168152602001915050602060405180830381600087803b151561039b57600080fd5b6102c65a03f115156103ac57600080fd5b5050506040518051905001028115156103c157fe5b049050806004541015806103d6575042600354115b156103e457600091506103ec565b600454810391505b5090565b6000809054906101000a900473ffffffffffffffffffffffffffffffffffffffff1673ffffffffffffffffffffffffffffffffffffffff163373ffffffffffffffffffffffffffffffffffffffff1614151561044b57600080fd5b6000600560009054906101000a900473ffffffffffffffffffffffffffffffffffffffff1673ffffffffffffffffffffffffffffffffffffffff161415806104a9575060008173ffffffffffffffffffffffffffffffffffffffff16145b156104b357600080fd5b80600560006101000a81548173ffffffffffffffffffffffffffffffffffffffff021916908373ffffffffffffffffffffffffffffffffffffffff16021790555050565b6000809054906101000a900473ffffffffffffffffffffffffffffffffffffffff1681565b60025481565b6000600160009054906101000a900473ffffffffffffffffffffffffffffffffffffffff1673ffffffffffffffffffffffffffffffffffffffff163373ffffffffffffffffffffffffffffffffffffffff1614151561058057600080fd5b6000600560009054906101000a900473ffffffffffffffffffffffffffffffffffffffff1673ffffffffffffffffffffffffffffffffffffffff1614156105c657600080fd5b6105ce6102c8565b9050808211156105dd57600080fd5b81600460008282540192505081905550600560009054906101000a900473ffffffffffffffffffffffffffffffffffffffff1673ffffffffffffffffffffffffffffffffffffffff1663a9059cbb84846000604051602001526040518363ffffffff167c0100000000000000000000000000000000000000000000000000000000028152600401808373ffffffffffffffffffffffffffffffffffffffff1673ffffffffffffffffffffffffffffffffffffffff16815260200182815260200192505050602060405180830381600087803b15156106ba57600080fd5b6102c65a03f115156106cb57600080fd5b5050506040518051905050505050565b600160009054906101000a900473ffffffffffffffffffffffffffffffffffffffff1681565b600560009054906101000a900473ffffffffffffffffffffffffffffffffffffffff16815600a165627a7a72305820a8906f421310dd982ba1d82a1b6924affc937c168f368eeecdc8c897391c6d660029a165627a7a723058204930b87e53cf939cf3bd957df979788de56a9537733dfa4c7780bf0094fdd86f002960606040526040805190810160405280600481526020017f48302e3100000000000000000000000000000000000000000000000000000000815250600690805190602001906200005192919062000139565b5034156200005e57600080fd5b60405162001178380380620011788339810160405280805190602001909190805182019190602001805190602001909190805182019190505083600160003373ffffffffffffffffffffffffffffffffffffffff1673ffffffffffffffffffffffffffffffffffffffff16815260200190815260200160002081905550836000819055508260039080519060200190620000fa92919062000139565b5081600460006101000a81548160ff021916908360ff16021790555080600590805190602001906200012e92919062000139565b5050505050620001e8565b828054600181600116156101000203166002900490600052602060002090601f016020900481019282601f106200017c57805160ff1916838001178555620001ad565b82800160010185558215620001ad579182015b82811115620001ac5782518255916020019190600101906200018f565b5b509050620001bc9190620001c0565b5090565b620001e591905b80821115620001e1576000816000905550600101620001c7565b5090565b90565b610f8080620001f86000396000f3006060604052600436106100af576000357c0100000000000000000000000000000000000000000000000000000000900463ffffffff16806306fdde03146100b4578063095ea7b31461014257806318160ddd1461019c57806323b872dd146101c5578063313ce5671461023e57806354fd4d501461026d57806370a08231146102fb57806395d89b4114610348578063a9059cbb146103d6578063cae9ca5114610430578063dd62ed3e146104cd575b600080fd5b34156100bf57600080fd5b6100c7610539565b6040518080602001828103825283818151815260200191508051906020019080838360005b838110156101075780820151818401526020810190506100ec565b50505050905090810190601f1680156101345780820380516001836020036101000a031916815260200191505b509250505060405180910390f35b341561014d57600080fd5b610182600480803573ffffffffffffffffffffffffffffffffffffffff169060200190919080359060200190919050506105d7565b604051808215151515815260200191505060405180910390f35b34156101a757600080fd5b6101af6106c9565b6040518082815260200191505060405180910390f35b34156101d057600080fd5b610224600480803573ffffffffffffffffffffffffffffffffffffffff1690602001909190803573ffffffffffffffffffffffffffffffffffffffff169060200190919080359060200190919050506106cf565b604051808215151515815260200191505060405180910390f35b341561024957600080fd5b61025161093b565b604051808260ff1660ff16815260200191505060405180910390f35b341561027857600080fd5b61028061094e565b6040518080602001828103825283818151815260200191508051906020019080838360005b838110156102c05780820151818401526020810190506102a5565b50505050905090810190601f1680156102ed5780820380516001836020036101000a031916815260200191505b509250505060405180910390f35b341561030657600080fd5b610332600480803573ffffffffffffffffffffffffffffffffffffffff169060200190919050506109ec565b6040518082815260200191505060405180910390f35b341561035357600080fd5b61035b610a35565b6040518080602001828103825283818151815260200191508051906020019080838360005b8381101561039b578082015181840152602081019050610380565b50505050905090810190601f1680156103c85780820380516001836020036101000a031916815260200191505b509250505060405180910390f35b34156103e157600080fd5b610416600480803573ffffffffffffffffffffffffffffffffffffffff16906020019091908035906020019091905050610ad3565b604051808215151515815260200191505060405180910390f35b341561043b57600080fd5b6104b3600480803573ffffffffffffffffffffffffffffffffffffffff1690602001909190803590602001909190803590602001908201803590602001908080601f01602080910402602001604051908101604052809392919081815260200183838082843782019150505050505091905050610c2c565b604051808215151515815260200191505060405180910390f35b34156104d857600080fd5b610523600480803573ffffffffffffffffffffffffffffffffffffffff1690602001909190803573ffffffffffffffffffffffffffffffffffffffff16906020019091905050610ecd565b6040518082815260200191505060405180910390f35b60038054600181600116156101000203166002900480601f0160208091040260200160405190810160405280929190818152602001828054600181600116156101000203166002900480156105cf5780601f106105a4576101008083540402835291602001916105cf565b820191906000526020600020905b8154815290600101906020018083116105b257829003601f168201915b505050505081565b600081600260003373ffffffffffffffffffffffffffffffffffffffff1673ffffffffffffffffffffffffffffffffffffffff16815260200190815260200160002060008573ffffffffffffffffffffffffffffffffffffffff1673ffffffffffffffffffffffffffffffffffffffff168152602001908152602001600020819055508273ffffffffffffffffffffffffffffffffffffffff163373ffffffffffffffffffffffffffffffffffffffff167f8c5be1e5ebec7d5bd14f71427d1e84f3dd0314c0f7b2291e5b200ac8c7c3b925846040518082815260200191505060405180910390a36001905092915050565b60005481565b600081600160008673ffffffffffffffffffffffffffffffffffffffff1673ffffffffffffffffffffffffffffffffffffffff168152602001908152602001600020541015801561079c575081600260008673ffffffffffffffffffffffffffffffffffffffff1673ffffffffffffffffffffffffffffffffffffffff16815260200190815260200160002060003373ffffffffffffffffffffffffffffffffffffffff1673ffffffffffffffffffffffffffffffffffffffff1681526020019081526020016000205410155b15156107a757600080fd5b81600160008573ffffffffffffffffffffffffffffffffffffffff1673ffffffffffffffffffffffffffffffffffffffff1681526020019081526020016000206000828254019250508190555081600160008673ffffffffffffffffffffffffffffffffffffffff1673ffffffffffffffffffffffffffffffffffffffff1681526020019081526020016000206000828254039250508190555081600260008673ffffffffffffffffffffffffffffffffffffffff1673ffffffffffffffffffffffffffffffffffffffff16815260200190815260200160002060003373ffffffffffffffffffffffffffffffffffffffff1673ffffffffffffffffffffffffffffffffffffffff168152602001908152602001600020600082825403925050819055508273ffffffffffffffffffffffffffffffffffffffff168473ffffffffffffffffffffffffffffffffffffffff167fddf252ad1be2c89b69c2b068fc378daa952ba7f163c4a11628f55a4df523b3ef846040518082815260200191505060405180910390a3600190509392505050565b600460009054906101000a900460ff1681565b60068054600181600116156101000203166002900480601f0160208091040260200160405190810160405280929190818152602001828054600181600116156101000203166002900480156109e45780601f106109b9576101008083540402835291602001916109e4565b820191906000526020600020905b8154815290600101906020018083116109c757829003601f168201915b505050505081565b6000600160008373ffffffffffffffffffffffffffffffffffffffff1673ffffffffffffffffffffffffffffffffffffffff168152602001908152602001600020549050919050565b60058054600181600116156101000203166002900480601f016020809104026020016040519081016040528092919081815260200182805460018160011615610100020316600290048015610acb5780601f10610aa057610100808354040283529160200191610acb565b820191906000526020600020905b815481529060010190602001808311610aae57829003601f168201915b505050505081565b600081600160003373ffffffffffffffffffffffffffffffffffffffff1673ffffffffffffffffffffffffffffffffffffffff1681526020019081526020016000205410151515610b2357600080fd5b81600160003373ffffffffffffffffffffffffffffffffffffffff1673ffffffffffffffffffffffffffffffffffffffff1681526020019081526020016000206000828254039250508190555081600160008573ffffffffffffffffffffffffffffffffffffffff1673ffffffffffffffffffffffffffffffffffffffff168152602001908152602001600020600082825401925050819055508273ffffffffffffffffffffffffffffffffffffffff163373ffffffffffffffffffffffffffffffffffffffff167fddf252ad1be2c89b69c2b068fc378daa952ba7f163c4a11628f55a4df523b3ef846040518082815260200191505060405180910390a36001905092915050565b600082600260003373ffffffffffffffffffffffffffffffffffffffff1673ffffffffffffffffffffffffffffffffffffffff16815260200190815260200160002060008673ffffffffffffffffffffffffffffffffffffffff1673ffffffffffffffffffffffffffffffffffffffff168152602001908152602001600020819055508373ffffffffffffffffffffffffffffffffffffffff163373ffffffffffffffffffffffffffffffffffffffff167f8c5be1e5ebec7d5bd14f71427d1e84f3dd0314c0f7b2291e5b200ac8c7c3b925856040518082815260200191505060405180910390a38373ffffffffffffffffffffffffffffffffffffffff1660405180807f72656365697665417070726f76616c28616464726573732c75696e743235362c81526020017f616464726573732c627974657329000000000000000000000000000000000000815250602e01905060405180910390207c01000000000000000000000000000000000000000000000000000000009004338530866040518563ffffffff167c0100000000000000000000000000000000000000000000000000000000028152600401808573ffffffffffffffffffffffffffffffffffffffff1673ffffffffffffffffffffffffffffffffffffffff1681526020018481526020018373ffffffffffffffffffffffffffffffffffffffff1673ffffffffffffffffffffffffffffffffffffffff168152602001828051906020019080838360005b83811015610e6d578082015181840152602081019050610e52565b50505050905090810190601f168015610e9a5780820380516001836020036101000a031916815260200191505b5094505050505060006040518083038160008761646e5a03f1925050501515610ec257600080fd5b600190509392505050565b6000600260008473ffffffffffffffffffffffffffffffffffffffff1673ffffffffffffffffffffffffffffffffffffffff16815260200190815260200160002060008373ffffffffffffffffffffffffffffffffffffffff1673ffffffffffffffffffffffffffffffffffffffff168152602001908152602001600020549050929150505600a165627a7a72305820f5f4487cf7b6ebbb0cd9d0e50d06ea948b6bf610075f01af433eb1ac638a47fd0029",
  "source": "pragma solidity ^0.4.11;\nimport \"tokens/HumanStandardToken.sol\";\nimport \"./Disbursement.sol\";\n\ncontract Sale {\n\n    /*\n     * Events\n     */\n\n    event PurchasedTokens(address indexed purchaser, uint amount);\n    event TransferredPreBuyersReward(address indexed preBuyer, uint amount);\n    event TransferredTimelockedTokens(address beneficiary, address disburser, uint amount);\n\n    /*\n     * Storage\n     */\n\n    address public owner;\n    address public wallet;\n    HumanStandardToken public token;\n    uint public price;\n    uint public startBlock;\n    uint public freezeBlock;\n\n    uint public totalPreBuyers;\n    uint public preBuyersDispensedTo = 0;\n    uint public totalTimelockedBeneficiaries;\n    uint public timeLockedBeneficiariesDisbursedTo = 0;\n\n    bool public emergencyFlag = false;\n    bool public preSaleTokensDisbursed = false;\n    bool public timelockedTokensDisbursed = false;\n\n    /*\n     * Modifiers\n     */\n\n    modifier saleStarted {\n        require(block.number >= startBlock);\n        _;\n    }\n\n    modifier onlyOwner {\n        require(msg.sender == owner);\n        _;\n    }\n\n    modifier notFrozen {\n        require(block.number < freezeBlock);\n        _;\n    }\n\n    modifier setupComplete {\n        assert(preSaleTokensDisbursed && timelockedTokensDisbursed);\n        _;\n    }\n\n    modifier notInEmergency {\n        assert(emergencyFlag == false);\n        _;\n    }\n\n    /*\n     * Public functions\n     */\n\n    /// @dev Sale(): constructor for Sale contract\n    /// @param _owner the address which owns the sale, can access owner-only functions\n    /// @param _wallet the sale's beneficiary address \n    /// @param _tokenSupply the total number of tokens to mint\n    /// @param _tokenName the token's human-readable name\n    /// @param _tokenDecimals the number of display decimals in token balances\n    /// @param _tokenSymbol the token's human-readable asset symbol\n    /// @param _price price of the token in Wei\n    /// @param _startBlock the block at which this contract will begin selling its token balance\n    function Sale(\n        address _owner,\n        address _wallet,\n        uint256 _tokenSupply,\n        string _tokenName,\n        uint8 _tokenDecimals,\n        string _tokenSymbol,\n        uint _price,\n        uint _startBlock,\n        uint _freezeBlock,\n        uint _totalPreBuyers,\n        uint _totalTimelockedBeneficiaries\n    ) {\n        owner = _owner;\n        wallet = _wallet;\n        token = new HumanStandardToken(_tokenSupply, _tokenName, _tokenDecimals, _tokenSymbol);\n        price = _price;\n        startBlock = _startBlock;\n        freezeBlock = _freezeBlock;\n        totalPreBuyers = _totalPreBuyers;\n        totalTimelockedBeneficiaries = _totalTimelockedBeneficiaries;\n\n        token.transfer(this, token.totalSupply());\n        assert(token.balanceOf(this) == token.totalSupply());\n        assert(token.balanceOf(this) == _tokenSupply);\n    }\n\n    /// @dev distributePreBuyersRewards(): private utility function called by constructor\n    /// @param _preBuyers an array of addresses to which awards will be distributed\n    /// @param _preBuyersTokens an array of integers specifying preBuyers rewards\n    function distributePreBuyersRewards(\n        address[] _preBuyers,\n        uint[] _preBuyersTokens\n    ) \n        public\n        onlyOwner\n    { \n        assert(!preSaleTokensDisbursed);\n\n        for(uint i = 0; i < _preBuyers.length; i++) {\n            token.transfer(_preBuyers[i], _preBuyersTokens[i]);\n            preBuyersDispensedTo += 1;\n            TransferredPreBuyersReward(_preBuyers[i], _preBuyersTokens[i]);\n        }\n\n        if(preBuyersDispensedTo == totalPreBuyers) {\n          preSaleTokensDisbursed = true;\n        }\n    }\n\n    /// @dev distributeTimelockedTokens(): private utility function called by constructor\n    /// @param _beneficiaries an array of addresses specifying disbursement beneficiaries\n    /// @param _beneficiariesTokens an array of integers specifying disbursement amounts\n    /// @param _timelocks an array of UNIX timestamps specifying vesting dates\n    /// @param _periods an array of durations in seconds specifying vesting periods\n    function distributeTimelockedTokens(\n        address[] _beneficiaries,\n        uint[] _beneficiariesTokens,\n        uint[] _timelocks,\n        uint[] _periods\n    ) \n        public\n        onlyOwner\n    { \n        assert(preSaleTokensDisbursed);\n        assert(!timelockedTokensDisbursed);\n\n        for(uint i = 0; i < _beneficiaries.length; i++) {\n          address beneficiary = _beneficiaries[i];\n          uint beneficiaryTokens = _beneficiariesTokens[i];\n\n          Disbursement disbursement = new Disbursement(\n            beneficiary,\n            _periods[i],\n            _timelocks[i]\n          );\n          \n          disbursement.setup(token);\n          token.transfer(disbursement, beneficiaryTokens);\n          timeLockedBeneficiariesDisbursedTo += 1;\n\n          TransferredTimelockedTokens(beneficiary, disbursement, beneficiaryTokens);\n        }\n\n        if(timeLockedBeneficiariesDisbursedTo == totalTimelockedBeneficiaries) {\n          timelockedTokensDisbursed = true;\n        }\n    }\n\n    /// @dev purchaseToken(): function that exchanges ETH for tokens (main sale function)\n    /// @notice You're about to purchase the equivalent of `msg.value` Wei in tokens\n    function purchaseTokens()\n        saleStarted\n        payable\n        setupComplete\n        notInEmergency\n    {\n        /* Calculate whether any of the msg.value needs to be returned to\n           the sender. The purchaseAmount is the actual number of tokens which\n           will be purchased. */\n        uint purchaseAmount = msg.value / price;\n        uint excessAmount = msg.value % price;\n\n        // Cannot purchase more tokens than this contract has available to sell\n        require(purchaseAmount <= token.balanceOf(this));\n\n        // Return any excess msg.value\n        if (excessAmount > 0) {\n            msg.sender.transfer(excessAmount);\n        }\n\n        // Forward received ether minus any excessAmount to the wallet\n        wallet.transfer(this.balance);\n\n        // Transfer the sum of tokens tokenPurchase to the msg.sender\n        token.transfer(msg.sender, purchaseAmount);\n\n        PurchasedTokens(msg.sender, purchaseAmount);\n    }\n\n    /*\n     * Owner-only functions\n     */\n\n    function changeOwner(address _newOwner)\n        onlyOwner\n    {\n        require(_newOwner != 0);\n        owner = _newOwner;\n    }\n\n    function changePrice(uint _newPrice)\n        onlyOwner\n        notFrozen\n    {\n        require(_newPrice != 0);\n        price = _newPrice;\n    }\n\n    function changeWallet(address _wallet)\n        onlyOwner\n        notFrozen\n    {\n        require(_wallet != 0);\n        wallet = _wallet;\n    }\n\n    function changeStartBlock(uint _newBlock)\n        onlyOwner\n        notFrozen\n    {\n        require(_newBlock != 0);\n\n        freezeBlock = _newBlock - (startBlock - freezeBlock);\n        startBlock = _newBlock;\n    }\n\n    function emergencyToggle()\n        onlyOwner\n    {\n        emergencyFlag = !emergencyFlag;\n    }\n\n}\n",
  "sourcePath": "/home/mike/simple-token-sale/contracts/Sale.sol",
  "compiler": {
    "name": "solc",
    "version": "0.4.18+commit.9cf6e910.Emscripten.clang"
  },
  "schemaVersion": "1.0.1",
  "updatedAt": "2017-11-21T15:51:23.398Z"
}